:10000000008700202556000091D7020011560000FD
:1000100011560000115600001156000000000000AB
:10002000000000000000000000000000F556000085
:1000300011560000000000009D56000011560000FF
:10004000F1580000F1580000F1580000F15800008C
:10005000F1580000F1580000F1580000F15800007C
:10006000F1580000F1580000F1580000F15800006C
:10007000F1580000F1580000F1580000F15800005C
:10008000F1580000F1580000F1580000F15800004C
:10009000F1580000F1580000F1580000F15800003C
:1000A000F1580000F1580000F1580000F15800002C
:1000B000F1580000F1580000F1580000F15800001C
:1000C000F1580000F1580000F1580000F15800000C
:1000D000F1580000F1580000F1580000F1580000FC
:1000E000F1580000F1580000F1580000F1580000EC
:1000F000F1580000F1580000F1580000F1580000DC
:1001000090F800F06DE9024520F007016FF0000C57
:1001100010F0070491F820F040F049804FF00004FF
:100120006FF00700D1E9002391F840F000F10800DA
:1001300082FA4CF2A4FA8CF283FA4CF3A2FA8CF312
:100140004BBBD1E9022382FA4CF200F10800A4FA79
:100150008CF283FA4CF3A2FA8CF3E3B9D1E90423CD
:1001600082FA4CF200F10800A4FA8CF283FA4CF304
:10017000A2FA8CF37BB9D1E9062301F1200182FABE
:100180004CF200F10800A4FA8CF283FA4CF3A2FAC4
:100190008CF3002BC6D0002A04BF04301A4612BAD2
:1001A000B2FA82F2FDE8024500EBD2007047D1E9D5
:1001B000002304F00305C4F100004FEAC50514F064
:1001C000040F91F840F00CFA05F562EA05021CBF35
:1001D00063EA050362464FF00004A9E7000000004F
:1001E000A2EB0300704700BF02780B78012A28BFFA
:1001F0009A42F5D16DE9044540EA0104CDE9026770
:100200006FF0000C4FEA447212B380EA010414F05C
:10021000070F6AD100F0070420F0070004F003057F
:1002200021F007014FEAC505F0E8042314F0040F9C
:10023000F1E804670CFA05F462EA040266EA0406CF
:100240000AD063EA0403624667EA0407664603E0ED
:10025000F0E80423F1E8046782FA4CF582EA060428
:10026000A4FA8CF46CBB83FA4CF583EA0705A5FA73
:100270008CF595B950E9022351E9026782FA4CF5F1
:1002800082EA0604A4FA8CF483FA4CF583EA0705A3
:10029000A5FA8CF52543DBD09CB92DBAB5FA85F4C7
:1002A00024F0070427FA04F1DDE9026723FA04F3D6
:1002B00003F0FF0001F0FF01FDE80445A0EB0100A1
:1002C000704724BAB4FA84F424F0070426FA04F13F
:1002D000DDE9026722FA04F202F0FF0001F0FF01FB
:1002E000FDE80445A0EB0100704714F0030F3CD17A
:1002F00010F0030428D150F8082B51F8083B82FA7B
:100300004CF582EA0305A5FA8CF55DB950F8042C8A
:1003100051F8043C82FA4CF582EA0305A5FA8CF503
:10032000002DE8D02DBAB5FA85F424F0070423FA9D
:1003300004F122FA04F202F0FF0001F0FF01FDE8EF
:100340000445A0EB010070474FEAC40420F003000D
:1003500050F8082B21F0030151F8083B0CFA04F483
:1003600062EA040263EA0403C9E710F003041AD046
:10037000A1EB040120F00300E40750F8042B06D0A1
:100380000FD28B785FFAA2F4E41A06D12BB1CB78A6
:100390005FFAB2F4E41A00D11BB920465DF8104BA5
:1003A000704701F1040150F8042BCC0721F0030140
:1003B00051F8043B48D824D222F07F4482FA4CF50D
:1003C00094EA1325A5FA8CF50AD165B951F8043BD6
:1003D00084EA0204B4EB036F0ED150F8042BEBE770
:1003E0004FEA132355E035F07F454DD10878FDE8FD
:1003F0000445C0F1000070474FEA126203F0FF03AA
:1004000047E002EA1C4482FA4CF594EA1345A5FA47
:100410008CF50AD165B951F8043B84EA0204B4EBC7
:10042000034F0CD150F8042BEBE74FEA134330E0B5
:1004300015EA1C4528D10B884FEA124229E04FEA01
:10044000124203EA1C4324E002F0FF0482FA4CF556
:1004500094EA1365A5FA8CF50AD165B951F8043B05
:1004600084EA0204B4EB032F09D150F8042BEBE724
:100470004FEA13630DE015F0FF0F05D10B684FEA4B
:10048000122223F07F4304E04FF00000FDE8044512
:10049000704712BA1BBA82FA4CF482EA0304A4FA37
:1004A0008CF5B5FA85F402FA04F203FA04F34FEA84
:1004B0001260FDE80445A0EB1360704700000000E7
:1004C00001F0FF01102A2BDB10F0070F08D010F805
:1004D000013B013A8B422DD010F0070F42B3F6D109
:1004E000F0B441EA012141EA014122F007047FF022
:1004F00000070023F0E80256083C85EA010586EA79
:10050000010685FA47F5A3FA87F586FA47F6A5FAB4
:1005100087F68EB9EED1F0BC01F0FF0102F00702C0
:1005200032B110F8013B013A83EA010313B1F8D16B
:100530000020704701387047002D06BF354603384C
:10054000073815F0010F07D1013015F4807F02BF85
:10055000013015F4C03F0130F0BC0138704700BFD6
:10056000844641EA000313F003036DD1403A41D3BE
:1005700051F8043B40F8043B51F8043B40F8043B7D
:1005800051F8043B40F8043B51F8043B40F8043B6D
:1005900051F8043B40F8043B51F8043B40F8043B5D
:1005A00051F8043B40F8043B51F8043B40F8043B4D
:1005B00051F8043B40F8043B51F8043B40F8043B3D
:1005C00051F8043B40F8043B51F8043B40F8043B2D
:1005D00051F8043B40F8043B51F8043B40F8043B1D
:1005E00051F8043B40F8043B51F8043B40F8043B0D
:1005F000403ABDD2303211D351F8043B40F8043BAD
:1006000051F8043B40F8043B51F8043B40F8043BEC
:1006100051F8043B40F8043B103AEDD20C3205D3BC
:1006200051F8043B40F8043B043AF9D2043208D0B4
:10063000D2071CBF11F8013B00F8013B01D30B8826
:1006400003806046704700BF082A13D38B078DD004
:1006500010F003038AD0C3F10403D21ADB071CBFD6
:1006600011F8013B00F8013B80D331F8023B20F840
:10067000023B7BE7043AD9D3013A11F8013B00F879
:10068000013BF9D20B7803704B7843708B78837001
:100690006046704781F0004102E000BF83F00043F4
:1006A00030B54FEA41044FEA430594EA050F08BF0D
:1006B00090EA020F1FBF54EA000C55EA020C7FEAD1
:1006C000645C7FEA655C00F0E2804FEA5454D4EB4E
:1006D0005555B8BF6D420CDD2C4480EA020281EA18
:1006E000030382EA000083EA010180EA020281EA50
:1006F0000303362D88BF30BD11F0004F4FEA0131A2
:100700004FF4801C4CEA113102D0404261EB4101B0
:1007100013F0004F4FEA03334CEA133302D0524236
:1007200063EB430394EA050F00F0A780A4F10104F2
:10073000D5F1200E0DDB02FA0EFC22FA05F280182C
:1007400041F1000103FA0EF2801843FA05F3594112
:100750000EE0A5F120050EF1200E012A03FA0EFC91
:1007600028BF4CF0020C43FA05F3C01851EBE371BB
:1007700001F0004507D54FF0000EDCF1000C7EEBD8
:1007800000006EEB0101B1F5801F1BD3B1F5001F16
:100790000CD349085FEA30004FEA3C0C04F1010435
:1007A0004FEA445212F5800F80F09A80BCF1004F5E
:1007B00008BF5FEA500C50F1000041EB045141EAE0
:1007C000050130BD5FEA4C0C404141EB0101013CA9
:1007D00028BFB1F5801FE9D291F0000F04BF014698
:1007E0000020B1FA81F308BF2033A3F10B03B3F16A
:1007F00020020CDA0C3208DD02F1140CC2F10C02FA
:1008000001FA0CF021FA02F10CE002F11402D8BF57
:10081000C2F1200C01FA02F120FA0CFCDCBF41EA23
:100820000C019040E41AA2BF01EB0451294330BDF2
:100830006FEA04041F3C1CDA0C340EDC04F11404CF
:10084000C4F1200220FA04F001FA02F340EA0300A6
:1008500021FA04F345EA030130BDC4F10C04C4F1EC
:10086000200220FA02F001FA04F340EA03002946CC
:1008700030BD21FA04F0294630BD94F0000F83F416
:10088000801306BF81F480110134013D4EE77FEAF9
:10089000645C18BF7FEA655C29D094EA050F08BF45
:1008A00090EA020F05D054EA000C04BF1946104626
:1008B00030BD91EA030F1EBF0021002030BD5FEA6A
:1008C000545C05D14000494128BF41F0004130BD92
:1008D00014F580043CBF01F5801130BD01F00045E6
:1008E00045F0FE4141F470014FF0000030BD7FEA59
:1008F000645C1ABF194610467FEA655C1CBF0B4654
:10090000024650EA013406BF52EA033591EA030F6A
:1009100041F4002130BD00BF90F0000F04BF002162
:10092000704730B54FF4806404F132044FF0000595
:100930004FF0000150E700BF90F0000F04BF00210E
:10094000704730B54FF4806404F1320410F0004574
:1009500048BF40424FF000013EE700BF42004FEA6F
:10096000E2014FEA31014FEA02701FBF12F07F43EC
:1009700093F07F4F81F06051704732F07F4208BFA3
:10098000704793F07F4F04BF41F40021704730B5AA
:100990004FF4607401F0004521F000411CE700BFF6
:1009A00050EA010208BF704730B54FF000050AE079
:1009B00050EA010208BF704730B511F0004502D57A
:1009C000404261EB41014FF4806404F132045FEA7C
:1009D000915C3FF4D8AE4FF003025FEADC0C18BF25
:1009E00003325FEADC0C18BF033202EBDC02C2F117
:1009F000200300FA03FC20FA02F001FA03FE40EAA9
:100A00000E0021FA02F11444BDE600BF70B54FF0AC
:100A1000FF0C4CF4E06C1CEA11541DBF1CEA13558A
:100A200094EA0C0F95EA0C0F00F0DEF82C4481EAF2
:100A3000030621EA4C5123EA4C5350EA013518BF12
:100A400052EA033541F4801143F4801338D0A0FBFF
:100A500002CE4FF00005E1FB02E506F00042E0FBAC
:100A600003E54FF00006E1FB03569CF0000F18BFB2
:100A70004EF0010EA4F1FF04B6F5007F64F540745A
:100A800004D25FEA4E0E6D4146EB060642EAC621ED
:100A900041EA55514FEAC52040EA5E504FEACE2E5A
:100AA000B4F1FD0C88BFBCF5E06F1ED8BEF1004F5D
:100AB00008BF5FEA500E50F1000041EB045170BDD9
:100AC00006F0004646EA010140EA020081EA03011D
:100AD000B4EB5C04C2BFD4EB0C0541EA045170BD19
:100AE00041F480114FF0000E013C00F3AB8014F193
:100AF000360FDEBF002001F0004170BDC4F10004DC
:100B0000203C35DA0C341BDC04F11404C4F120055C
:100B100000FA05F320FA04F001FA05F240EA0200B7
:100B200001F0004221F0004110EBD37021FA04F6ED
:100B300042EB06015EEA430E08BF20EAD37070BDA7
:100B4000C4F10C04C4F1200500FA04F320FA05F006
:100B500001FA04F240EA020001F0004110EBD37008
:100B600041F100015EEA430E08BF20EAD37070BD78
:100B7000C4F1200500FA05F24EEA020E20FA04F351
:100B800001FA05F243EA020321FA04F001F0004100
:100B900021FA04F220EA020000EBD3705EEA430E71
:100BA00008BF20EAD37070BD94F0000F0FD101F0A0
:100BB0000046400041EB010111F4801F08BF013CD9
:100BC000F7D041EA060195F0000F18BF704703F017
:100BD0000046520043EB030313F4801F08BF013D9E
:100BE000F7D043EA0603704794EA0C0F0CEA13555A
:100BF00018BF95EA0C0F0CD050EA410618BF52EA14
:100C00004306D1D181EA030101F000414FF0000019
:100C100070BD50EA410606BF1046194652EA430627
:100C200019D094EA0C0F02D150EA013613D195EA9B
:100C30000C0F05D152EA03361CBF104619460AD1E3
:100C400081EA030101F0004141F0FE4141F47001ED
:100C50004FF0000070BD41F0FE4141F4780170BDDD
:100C600070B54FF0FF0C4CF4E06C1CEA11541DBF42
:100C70001CEA135594EA0C0F95EA0C0F00F0A7F844
:100C8000A4EB050481EA030E52EA03354FEA013171
:100C900000F088804FEA03334FF0805545EA131384
:100CA00043EA12634FEA022245EA111545EA10654C
:100CB0004FEA00260EF000419D4208BF964244F1E3
:100CC000FD0404F5407402D25B084FEA3202B61A02
:100CD00065EB03055B084FEA32024FF480104FF4D6
:100CE000002CB6EB020E75EB030E22BFB61A75464A
:100CF00040EA0C005B084FEA3202B6EB020E75EBDD
:100D0000030E22BFB61A754640EA5C005B084FEA44
:100D10003202B6EB020E75EB030E22BFB61A754611
:100D200040EA9C005B084FEA3202B6EB020E75EB1C
:100D3000030E22BFB61A754640EADC0055EA060EDD
:100D400018D04FEA051545EA16754FEA06164FEA20
:100D5000C30343EA52734FEAC2025FEA1C1CC0D1CC
:100D600011F4801F0BD141EA00014FF000004FF059
:100D7000004CB6E711F4801F04BF01430020B4F11A
:100D8000FD0C88BFBCF5E06F3FF6AFAEB5EB030CD2
:100D900004BFB6EB020C5FEA500C50F1000041EBCF
:100DA000045170BD0EF0004E4EEA113114EB5C049C
:100DB000C2BFD4EB0C0541EA045170BD41F480116F
:100DC0004FF0000E013C90E645EA060E8DE60CEA77
:100DD000135594EA0C0F08BF95EA0C0F3FF43BAF94
:100DE00094EA0C0F0AD150EA01347FF434AF95EA4B
:100DF0000C0F7FF425AF104619462CE795EA0C0F2F
:100E000006D152EA03353FF4FDAE1046194622E7FB
:100E100050EA410618BF52EA43067FF4C5AE50EAD5
:100E200041047FF40DAF52EA43057FF4EBAE12E7C5
:100E30004FF0FF3C06E000BF4FF0010C02E000BFA6
:100E40004FF0010C4DF804CD4FEA410C7FEA6C5C89
:100E50004FEA430C18BF7FEA6C5C1BD001B050EA2C
:100E6000410C0CBF52EA430C91EA030F02BF90EA17
:100E7000020F0020704710F1000F91EA030F58BFD6
:100E8000994208BF90422CBFD8176FEAE37040F038
:100E9000010070474FEA410C7FEA6C5C02D150EAD6
:100EA000013C07D14FEA430C7FEA6C5CD6D152EA91
:100EB000033CD3D05DF8040B704700BF8446104656
:100EC00062468C461946634600E000BF01B5FFF755
:100ED000B7FF002848BF10F1000F01BD4DF808ED25
:100EE000FFF7F4FF0CBF012000205DF808FB00BFF6
:100EF0004DF808EDFFF7EAFF34BF012000205DF850
:100F000008FB00BF4DF808EDFFF7E0FF94BF01209C
:100F100000205DF808FB00BF4DF808EDFFF7CEFF9D
:100F200094BF012000205DF808FB00BF4DF808EDDC
:100F3000FFF7C4FF34BF012000205DF808FB00BFAD
:100F40004FEA410C7FEA6C5C02D150EA013C0AD1C5
:100F50004FEA430C7FEA6C5C02D152EA033C02D1B7
:100F60004FF0000070474FF0010070474FEA410218
:100F700012F5001215D211D56FF47873B3EB6252EB
:100F800012D94FEAC12343F0004343EA505311F012
:100F9000004F23FA02F018BF404270474FF00000A4
:100FA000704750EA013005D111F0004008BF6FF0E2
:100FB000004070474FF00000704700BF80F00040D5
:100FC00002E000BF81F0004142001FBF5FEA410321
:100FD00092EA030F7FEA226C7FEA236C6AD04FEA21
:100FE0001262D2EB1363C1BFD21841404840414066
:100FF000B8BF5B42192B88BF704710F0004F40F418
:10100000000020F07F4018BF404211F0004F41F433
:10101000000121F07F4118BF494292EA030F3FD0FF
:10102000A2F1010241FA03FC10EB0C00C3F1200312
:1010300001FA03F100F0004302D5494260EB4000A1
:10104000B0F5000F13D3B0F1807F06D340084FEA0C
:10105000310102F10102FE2A51D2B1F1004F40EB01
:10106000C25008BF20F0010040EA03007047490069
:1010700040EB0000013A28BFB0F5000FEDD2B0FA06
:1010800080FCACF1080CB2EB0C0200FA0CF0AABF29
:1010900000EBC25052421843BCBFD04018437047C7
:1010A00092F0000F81F4000106BF80F400000132CD
:1010B000013BB5E74FEA41037FEA226C18BF7FEAA4
:1010C000236C21D092EA030F04D092F0000F08BFE6
:1010D0000846704790EA010F1CBF0020704712F0CD
:1010E0007F4F04D1400028BF40F00040704712F10C
:1010F00000723CBF00F50000704700F0004343F071
:10110000FE4040F4000070477FEA226216BF0846A6
:101110007FEA23630146420206BF5FEA412390EA69
:10112000010F40F4800070474FF0000304E000BF5F
:1011300010F0004348BF40425FEA000C08BF704710
:1011400043F0964301464FF000001CE050EA0102D4
:1011500008BF70474FF000030AE000BF50EA0102E9
:1011600008BF704711F0004302D5404261EB4101D6
:101170005FEA010C02BF84460146002043F0B643FB
:1011800008BFA3F18053A3F50003BCFA8CF2083A20
:10119000A3EBC25310DB01FA02FC634400FA02FC29
:1011A000C2F12002BCF1004F20FA02F243EB020030
:1011B00008BF20F00100704702F1200201FA02FC92
:1011C000C2F1200250EA4C0021FA02F243EB020085
:1011D00008BF20EADC70704742000ED2B2F1FE4F29
:1011E0000BD34FF09E03B3EB126209D44FEA0023F6
:1011F00043F0004323FA02F070474FF000007047BD
:1012000012F1610F01D1420202D14FF0FF3070475D
:101210004FF00000704700BF53B94AB9002908BF1A
:1012200000281CBF4FF0FF314FF0FF3000F00CB82A
:10123000ADF1080C6DE904CE00F008F8DDF804E02B
:10124000DDE9022304B07047704700BF2DE9F04785
:1012500086468C460846089E154674461946002B5D
:1012600040F0C2808542B2FA82F245D94AB1C2F159
:10127000200300FA02FC2EFA03F3954043EA0C0C1B
:1012800094404FEA154EA8B2BCFBFEF8230C0EFBAF
:1012900018CC08FB00F943EA0C43994528D9EB1810
:1012A00008F1FF3704D2994502D9A8F102072B446F
:1012B000A3EB0903A4B2B3FBFEFC0EFB1C330CFB37
:1012C00000F044EA0344A04214D92C190CF1FF3376
:1012D00004D2A04202D9ACF102032C44241A43EAFE
:1012E00007401EB1D440002334607360BDE8F0872E
:1012F0004746DDE76346F1E792BB431B01214FEA16
:10130000154EAFB2B3FBFEFC200C0EFB1C330CFBE6
:1013100007F840EA0343984562D9EB180CF1FF3017
:1013200004D2984502D9ACF102002B44A3EB080388
:10133000A4B2B3FBFEFC0EFB1C330CFB07F744EA24
:101340000344A7424ED92C190CF1FF3304D2A74213
:1013500002D9ACF102032C44E41B43EA0040C0E78D
:10136000C2F1200320FA03F1954090402EFA03F3D6
:1013700003434FEA154EAFB2B1FBFEFC0EFB1C104F
:10138000190C0CFB07F841EA0041884504FA02F405
:1013900022D969180CF1FF3004D2884502D9ACF18A
:1013A00002002944A1EB08019BB2B1FBFEFC0EFB3D
:1013B0001C110CFB07F743EA01439F420ED9EB18BF
:1013C0000CF1FF3104D29F4202D9ACF102012B444F
:1013D000DB1B41EA004192E76046E3E76146F7E73D
:1013E0006046A3E76346B7E7834206D916B90021F2
:1013F00008467BE7C6E900E0F9E7B3FA83F78FB95F
:10140000834201D3724508D8BEEB020460EB0303AC
:1014100001209C461EB9002168E73846FAE7C6E974
:10142000004CF8E7C7F1200CBB4022FA0CF41C4337
:101430002EFA0CF120FA0CF3B84001434FEA14499C
:101440000EFA07F5B3FBF9F81FFA84FE09FB183012
:101450000B0C08FB0EFA43EA00439A4502FA07F226
:1014600040D9E31808F1FF3004D29A4502D9A8F117
:1014700002002344A3EB0A0389B2B3FBF9F809FB8A
:10148000183308FB0EFE41EA03418E452CD9611842
:1014900008F1FF3304D28E4502D9A8F1020321449A
:1014A00043EA0040A0FB0298A1EB0E014145CE4665
:1014B000434602D306D14D4504D2B9EB020E68EB88
:1014C00004030138002EA6D0B5EB0E0261EB030138
:1014D00001FA0CFC22FA07F34CEA0303F940C6E9CF
:1014E000003198E74046C5E74346D9E700000000D1
:1014F0002DE9F04F016C9FB016461F46CDE90467F9
:101500002B9D039049B1426C4A60012393400446ED
:101510008B6028F0B9FC00232364B7F10009B4BF45
:10152000012300232B60764BBCBF29F00049CDF886
:10153000149033EA090300F0AA80DDE904340022A4
:10154000184621460023CDE90801FFF7C7FC804675
:1015500068B12A9A012313602C9B13B12C9A694B12
:101560001360694B0A930A981FB0BDE8F08F1CAB5B
:1015700001931DAB00930398DDE9082328F0B8FF21
:101580005FEA1955824640F09880DDE91C854544A4
:1015900005F23243202B40F38383C3F1400309FA61
:1015A00003F905F2124326FA03F349EA0300FFF7B1
:1015B000B3F90123013DA1F1F8711193534B0022BE
:1015C000FFF76CF848A3D3E90023FFF71FFA48A3FD
:1015D000D3E90023FFF764F8064628460F46FFF7D5
:1015E000ABF945A3D3E90023FFF710FA02460B46F7
:1015F00030463946FFF754F806460F46FFF7B6FC6B
:1016000000228346002330463946FFF771FC00284C
:1016100040F01A83A8EB0508BBF1160F08F1FF3460
:1016200000F28B813A4D05EBCB05D5E90023DDE9CE
:101630000801FFF75DFC002870D00023002C0BF19F
:10164000FF3B1093C0F27E8100230B93BBF1000F90
:101650006ADA0B9BA3EB0B030B93CBF10003CDE9F1
:101660000EB3289B092B4FF0000B65D8052B40F3D8
:101670001C83043B28930025289B023B032B00F28C
:101680002386DFE813F060045D04540438042A9ACA
:10169000C9F3130942F20F7359EA060913601CD10A
:1016A0002C9B002B00F02B861A4B0A9308332C9AA4
:1016B0000A9813601FB0BDE8F08FDDE90812C2F38D
:1016C0001303084643F07F51CDF84480A5F2FF355F
:1016D000DDF8708041F4401170E72C9B002B40F046
:1016E000E7830D4B0A933EE761436F63A787D23FC1
:1016F000B3C8608B288AC63FFB799F501344D33F01
:101700000000F07F25720300247203000000F83F00
:10171000305E03007CD0030088D00300B8F1000FD6
:1017200040F3608410900B9000230F93289BCDF81A
:1017300038B0092B5C4499D90023CDE92833012521
:101740004FF0FF330C950693039B00215964069BD1
:101750001893039828F072FB0A90002800F0BD85CA
:10176000039B0A9A1A64069B0E2B00F21581002D2A
:1017700000F012810E9A002A40F33B84B24D02F031
:101780000F0305EBC303D3E9008913461511DA05EE
:1017900040F1FA83AD4BDDE90801D3E90823FFF7F7
:1017A0005FFACDE9120105F00F0503277DB1A74EC1
:1017B000EB0708D540464946D6E90023FFF726F94E
:1017C0000137804689466D1006F10806F0D1424681
:1017D0004B46DDE91201FFF743FA80468946109B2C
:1017E00043B19B4B002240464946FFF781FB00284E
:1017F00040F0F1843846FFF79FF842464B46FFF72A
:1018000005F9944B0022FEF74BFF069B0646A1F11B
:101810005077002B00F0A9800E9B1993069B129322
:101820000A9B894D49464046CDE914675E1CFFF787
:101830009DFB129905EBC10353E902120746CDE95E
:101840001612FFF779F802460B4640464946FEF766
:1018500025FF89460C993037DDE916238046FFB213
:10186000002900F053847C490020FFF7F9F9DDE9F5
:101870001423FEF713FF0A9D02460B46CDE91423FD
:101880002F7042464B46FFF751FB002840F09784EB
:10189000CDE91AB4CDF858A0129DDDE914AB0027AC
:1018A0002AE00137AF4280F2DE846C4B5046594645
:1018B0000022FFF7ABF8694B002282468B46404678
:1018C0004946FFF7A3F889468046FFF74FFB0446D9
:1018D000FFF732F802460B4640464946FEF7DEFE69
:1018E000303406F8014B52465B4680468946FFF786
:1018F000FFFA002840F0B48442464B465449002089
:10190000FEF7CCFE52465B46FFF7F2FA0028C8D03D
:10191000199BDDF858A00A9A374603F1010802E046
:10192000974200F07C843E4617F8013D392BF7D0F2
:101930000133DBB23B70454675E10123002C109367
:10194000BFF682AEC8F101030B9300247EE6384651
:10195000FEF7F2FF42464B46FFF758F83D4B002298
:10196000FEF79EFE0646A1F150773D4B40464946A4
:101970000022FEF793FE32463B4680468946FFF73B
:10198000D5FA002840F05A8440464946324607F1CD
:101990000043FFF7ADFA28BB1D9B002BC0F29280DD
:1019A0000E9A0E2A00F38E80274D0E9B05EBC30581
:1019B000D5E90034CDE90434299B002B19DA069BC4
:1019C000002B16DC0ED1264B0022DDE90401FFF7C7
:1019D0001DF802460B46DDE90801FFF793FA0028DF
:1019E00000F02C844FF000090A9E4F46299BDD43EE
:1019F00025E2DDE90445DDE9088922462B4640461B
:101A00004946FFF72DF9FFF7B1FA0646FEF794FFB6
:101A100022462B46FEF7FAFF0A9F0B46024649462E
:101A20004046FEF73BFE06F1300307F8013B069BFC
:101A3000012B00F012830125CDF818A09946DDE9AD
:101A400004ABA8462CE000BF305E0300085E030034
:101A50000000F03F00001C400000E03F0000244078
:101A60000000144052465B4620462946FFF7F8F82E
:101A7000FFF77CFA0646FEF75FFF52465B46FEF72D
:101A8000C5FF08F101080B46024629462046FEF72D
:101A900005FE06F13003C84507F8013B00F0DB8284
:101AA000B94B0022FEF7B2FF0022002304460D4688
:101AB000FFF714FA0028D5D00E9DDDF818A00135E7
:101AC0003E46B0E00C9A002A40F0D28000230F9DE1
:101AD0000B9E0C931F4656B1002C08DDA6420B9AB4
:101AE0003346A8BF2346D21A0B92F61AE41A0F9B6C
:101AF00053B10C9B13B1002D40F0E88251460F9A70
:101B0000039828F051FB82460398012128F068FAD7
:101B10008146BBF1000F40F0B681289B012B40F3BA
:101B2000CC810120204410F01F0000F09A80C0F109
:101B30002003042B40F3DA810B9BC0F11C0003440B
:101B40000B93064404440B9B002B05DD5146039880
:101B50001A4628F083FB8246002C05DD494603988F
:101B6000224628F07BFB8146109B002B40F07081C1
:101B7000069B002B40F348810C9B002B40F0A48077
:101B80000E9D0135DDF82880069CDDF80CB001269D
:101B900007E0514600230A22584628F07FF9013613
:101BA00082464946504627F063FFA64200F13003C3
:101BB00008F8013BEDDB069A002AC8BF16460A9AD0
:101BC000D8BF012602EB060B0024514601220398E0
:101BD000049328F043FB4946824628F0B7FB0028CF
:101BE00040F3E3810A9A02E05A4500F0E9815E463B
:101BF0000BF1FF3B16F8013C392BF5D001338BF884
:101C00000030DDF80C804946404628F03DF957B1D8
:101C10002CB1BC4203D02146404628F035F9039848
:101C2000394628F031F90398514628F02DF9002360
:101C300033702A9B1D602C9B002B3FF494AC0A98B8
:101C40001E601FB0BDE8F08F5846FEF775FE3246A5
:101C50003B46FFF743F900287FF4DCAC0BF1FF3B78
:101C6000D8E41C230B9A1A440B921E441C446AE7C6
:101C7000289A012A40F3A981069A0F9B551EAB4270
:101C8000C0F26B81002AA3EB050580F2DD820B9B7D
:101C9000069A9E1A0398012128F0A2F907461AE72E
:101CA000C3F1200306FA03F081E40125E4E4394698
:101CB000002303980A2228F0F1F8189B002B07460E
:101CC00040F3EF820E950693002E00F33F81BBF1A7
:101CD000000F40F0DF81B8460A9E069C731E1C442C
:101CE000049B0C9403F00103039C0F934946504658
:101CF00027F0BEFE39468346504628F027FB424671
:101D000049460546204628F041FBC26801460BF1D2
:101D10003003002A3AD1089050460B9328F016FB66
:101D200008990690204628F0AFF8069A0B9B002AE7
:101D30005AD1289A1AB90F9A002A00F09A82002DD7
:101D400045DB0C9AB346B2420BF8013B00F0B98177
:101D5000514600230A22204628F0A0F84745824633
:101D600039464FF000034FF00A02204636D028F0E3
:101D700095F84146074600230A22204628F08EF8AF
:101D80005E468046B2E700BF0000244003980693F9
:101D900028F07AF8002D069B06DB049A289902F0B9
:101DA00001020D432A432AD151460122039804938C
:101DB00028F054FA4946824628F0C8FA0028049BC5
:101DC00040F3E880392B00F02F820BF131030E9D98
:101DD00006F8013B3C460135474612E728F05EF81D
:101DE0005E460746804681E7002DC0F27D82289935
:101DF0000D430F990D4300F07782002AA1DD392BA6
:101E000000F012820133E2E7289B022B7FF7B4AE89
:101E1000069B002B40F01D8149460522039828F0BF
:101E20003DF801468146504628F090FA002840F3DC
:101E300010810A9E0E9D312306F8013B013503985F
:101E40004946013528F020F8002F7FF4E8AEEAE695
:101E50004946504628F07AFA0028BFF689AE514626
:101E6000002303980A2228F019F80E9B5D1E0C9B94
:101E70008246002B7FF41BAF189B002B40F3FF81A1
:101E80000E9D06937EE601465A46039828F08CF98B
:101E9000289B012B81466CDD4FF0000BD9F81030E8
:101EA00009EB8303186928F049F8C0F1200039E6EE
:101EB000924B0A930333FFF7FABB049B002B7FF48A
:101EC00030AEDDE90412C2F31303002B7FF429AE18
:101ED0008B4B134023B10B9B01330B930134012334
:101EE000BBF1000F40F0AE819B461AE63FF42BAEEB
:101EF000C0F13C03B6E601230C93299B0E9A1344D0
:101F000018930133012B1E460693B8BF0126172EE6
:101F100040F3D581012204235B0003F11400B04299
:101F2000114602F10102F7D9039B596411E4012320
:101F30000C93299B002B33DD189306931E46E6E78E
:101F400000230C93D9E700230C93F2E7394603985A
:101F5000324628F083F90746B9E60F9B069A0F959B
:101F6000EB1A9B440B9B1E46134414440B93002511
:101F700090E6049B002B8FD1DDE90401C1F313032C
:101F80000A46002B88D1A3E7DDE908230227CDE923
:101F900012230BE47FF41BAFDA077FF518AF11E7CC
:101FA000012329930693FFF7CFBB03D1049BDB07E3
:101FB0003FF518AE5E461BF8013D302BFAD020E607
:101FC0000A9A3123013513701BE6119A002A00F09A
:101FD000F98003F233430B9A0F9D16461A441C44B2
:101FE0000B9257E6C8F1010304460B931090FFF7DC
:101FF0009BBB00F0EB800E9B424D5E4206F00F0350
:1020000005EBC303D3E90023DDE90801FEF7FEFC7D
:102010003511CDE9120100F04D813B4E002302271E
:1020200080468946E80709D5D6E900234046494657
:10203000FEF7ECFC01378046894601236D1006F15E
:102040000806EFD1002B7FF4CAABDDE91289FFF758
:10205000C6BB0A9ECAE4DDF818A00E9D02460B46D8
:10206000FEF71EFB02460B46CDE906230135DDE9EE
:102070000423A846FEF75AFF40B9DDE90423DDE951
:102080000601FEF72BFF18B1F10701D50A9A4AE4C1
:102090003E46C8E57968039827F0D0FE054600283B
:1020A00000F026813B6902339A0007F10C010C30E5
:1020B000FEF756FA03982946012228F0CFF8804609
:1020C0000AE60E9D3C46013547467EE5DDF80C806C
:1020D00039462A46404628F067F8524601460746E8
:1020E000404627F0ABFF51468246404627F0CCFEE3
:1020F0000F9B5B1B0F933FF407ADFFE488D00300F9
:102100000000F07F305E0300085E0300DDE914018B
:10211000FEF77CFC0A9B1F70129B012BCDE90C0182
:1021200000F0C680129F0A9BCDF844B01F447C4B40
:10213000002240464946FEF769FC89468046FEF784
:1021400015FF8346FEF7F8FB0BF1300B02460B46FA
:1021500040464946FEF7A2FA06F801BBB742804660
:102160008946E4D1DDF844B06E4B0022DDE90C0174
:10217000FEF796FA02460B4640464946FEF7D6FE63
:10218000002867D1DDE90C2366490020FEF786FAB6
:1021900002460B4640464946FEF7AAFE48B91D9B3B
:1021A000002BFFF693AC0E9B0E2B3FF78FACFFF787
:1021B000FCBB3E46013F16F8013C302BF9D0199D7F
:1021C000013530E51C9BC3F1360304E7DDE90889DE
:1021D0000227FFF704BB069B002B3FF4B8AB189B0C
:1021E000002B7FF7D9AB0E9A1293013A4C4B199200
:1021F000404600224946FEF709FC80468946781C85
:10220000FEF79AFB42464B46FEF700FC464B002287
:10221000FEF746FA0646A1F15077FFF701BB08F139
:1022200001083123FFF786BB0E9D0A9AB346392376
:102230003C460BF8013B01354746D8E44FF0000916
:102240004F46F6E59B4629E60B9B1E461344144475
:102250000B931FE5199B0A9A03F10108FFF763BB73
:10226000DDF858A0ABE7DDE91AB4DDF858A0FFF7B8
:1022700093BB392BD8D0002D3FF7A7ADA7E5289BFE
:10228000022B0ADC189B069349460E9D27F0F0FBB3
:102290000A9A00F1300313708DE4189B06930E9593
:1022A000B6E5289B022BF8DC189B0E9506930BE5F0
:1022B000374659E7DDE912890227FFF790BA039BF9
:1022C00000215964FFF745BA039B00255D64294648
:1022D000184627F0B3FD0A90A8B9144B1448002201
:1022E0004FF4D57128F01EFA002A7FF770AD5BE538
:1022F0000E4B0F482A4640F2EA2128F013FA0D4B04
:102300000A93FFF730B9039B0A9A1A644FF0FF3320
:102310000122299518930C920693FFF73DBB00BF4D
:10232000000024400000E03F00001C408CD003006F
:10233000A0D003007CD0030038B5836805699C6990
:102340007CB112F4000F06D02D6801238B401D4292
:1023500001D082F0C062044B134002F0B072A0477B
:1023600038BD6FF05700FBE74000000608B50C4A87
:1023700003210C482BF029F831F00BFF0A4B1B68A6
:10238000C01AB0F5FA7F03DC084823F0C7FE08BD89
:1023900031F0FFFE044B1860054B01221A70F3E781
:1023A000F85E03005C5B0300E0240020D00F0020F7
:1023B0008C59002010B50446034904482AF0B2F8AD
:1023C0002046FFF7D3FF10BD3C660300085F030003
:1023D00010B51B4832F0ADFDC0B14FF48031194843
:1023E00029F069FF0146C8B94FF0B8620B211448C3
:1023F000FFF7A2FF0446C8B91349144B4B604FF4D2
:1024000000638B600E4829F061FF05E00C4B1968F2
:102410000F482AF087F80124204610BD0B23084AF4
:1024200012680C482AF07EF80124F5E70B23044AD1
:102430001268014608482AF075F80124ECE700BF4D
:102440009C5703004C660300EC250020B5230000D8
:102450000C5F0300345F0300605F0300F0B585B0DC
:1024600000AF1546013B062B05D8DFE803F0878A4D
:10247000080B110E14004FF0FF33A44E83E001232C
:10248000A34E80E00123A34E7DE00123A24E7AE01B
:102490000223A24E77E06C4600233B7202237B723C
:1024A0000123BB720323FB723B7305237B738CB048
:1024B0006E4616F110022BD04FF01E0C22B1BCF16B
:1024C000040F01DD964B736100233B7202237B7284
:1024D0001AB1BCF1080F00DDB0610123BB72032308
:1024E000FB723AB16346BCF10C0F00DDF161102BB9
:1024F00000DD356203233B7305237B73AAB1BCF176
:10250000140F01DD874B736206F1280300210AE0F6
:102510006FF0004CD2E701F11000384410F8080CBD
:1025200003F8010B01310529F5D9BCF11D0F22DD9E
:102530001E2342B10621397100217971B97103213D
:10254000F9717868306100216FF300016FF3410188
:102550006FF382016FF3C501032060F38811C3F3A9
:102560000A0363F353216FF31F5100236E4802F0F7
:102570009BF8A5460BE06FF01B03DAE701236B4ED7
:1025800001E001236A4E022B04D0012B7AD01437CC
:10259000BD46F0BD6C4600233B7202237B720123D3
:1025A000BB720323FB723B7305237B738CB0EC4639
:1025B0001CF110022FD04FF01E0E2AB1BEF1040FF5
:1025C00002DD574BCCF8143000233B7202237B72A0
:1025D00022B1BEF1080F01DDCCF818000123BB7257
:1025E0000323FB724AB17346BEF10C0F01DDCCF838
:1025F0001C10102B01DDCCF8205003233B73052366
:102600007B73AAB1BEF1140F01DDCCF824600CF18C
:10261000280300210AE06FF0004ECEE701F1100020
:10262000384410F8080C03F8010B01310529F5D9DD
:10263000BEF11D0F23DD1E234AB106213971002191
:102640007971B9710321F9717868CCF81000002113
:102650006FF300016FF341016FF382016FF3C50166
:10266000022060F38811C3F30A0363F353216FF36D
:102670001F5100232C4802F017F8A54687E76FF09A
:102680001B03D9E76C4600233B7202237B720123B4
:10269000BB720323FB723B7305237B738CB0EC4648
:1026A0001CF110022FD04FF01E0E2AB1BEF1040F04
:1026B00002DD1B4BCCF8143000233B7202237B72EB
:1026C00022B1BEF1080F01DDCCF818000123BB7266
:1026D0000323FB724AB17346BEF10C0F01DDCCF847
:1026E0001C10102B01DDCCF8205003233B73052375
:1026F0007B734AB3BEF1140F01DDCCF824600CF1FA
:10270000280300211EE06FF0004ECEE72092030068
:10271000C85F030014600300F45F0300DC5F030084
:1027200028600300446003005C5B0300B05F0300AB
:10273000985F030001F11000384410F8080C03F80A
:10274000010B01310529F5D9BEF11D0F23DD1E2333
:102750004AB10621397100217971B9710321F971EA
:102760007868CCF8100000216FF300016FF341018D
:102770006FF382016FF3C501012060F38811C3F389
:102780000A0363F353216FF31F510023034801F041
:102790008BFFA546FBE66FF01B03D9E75C5B0300EC
:1027A00010B584B00146002203920F4C2368180E26
:1027B0008DF80C00180C8DF80D00180A8DF80E001D
:1027C0008DF80F300423009303AB10462FF02FFA3F
:1027D000034640F28F2205490548FFF73FFE236874
:1027E0000133236004B010BDE424002048650300D9
:1027F0005C600300F0B58DB002AF00233B62BB8488
:102800004BE0BE4A0321BE482AF0DFFDBD4900204F
:102810000BF0B6F80346BC4EBC4D4FF4BE723146C9
:102820002846FFF71BFEBA4900200BF021F80346AB
:1028300040F27D1231462846FFF710FEB5490020D0
:102840000BF026F903464FF4BF7231462846FFF7D6
:1028500005FEB14900200BF0A3F9034640F27F12B8
:1028600031462846FFF7FAFD012100200BF020FA3F
:1028700003464FF4C47231462846FFF7EFFD0020AF
:102880000BF0BCFB03464FF4D67231462846FFF7E7
:10289000E5FDFB7F002B00F03D8207F11F0107F1F2
:1028A00020000BF00DFD034640F273129649974845
:1028B000FFF7D4FD97F82130202B00F2258201A2EA
:1028C00052F823F003280000492900006F29000076
:1028D000A1290000B9290000DF290000EB29000030
:1028E000F7290000032A00000F2A00001B2A00001D
:1028F000272A0000452A0000512A00005D2A000016
:10290000692A0000752A00008F2A00009B2A000017
:10291000A72A0000B32A0000092D0000092D00009D
:10292000092D0000092D0000092D0000BF2A00001C
:10293000CB2A0000D72A0000E32A0000CB2C00009D
:10294000EF2A00009D2B0000744A03216C482AF0F6
:102950003CFD6520FFF724FF3C200BF031FD0346D2
:102960004FF4DA7268496948FFF778FD91E7644DE2
:102970006B4A032128462AF028FD6A4A032128468B
:102980002AF023FD6520FFF70BFF3C200BF018FD1C
:1029900003464FF4DF725C495C48FFF75FFD78E760
:1029A000574D614A032128462AF00FFD5F4A032153
:1029B00028462AF00AFD6CE75D4A032150482AF0B8
:1029C00004FD5C4B5C4A5D495D482FF04BF90346C2
:1029D00040F2C9124C494D48FFF740FD59E7594AAA
:1029E000032147482AF0F1FC53E7574A03214448A2
:1029F0002AF0EBFC4DE7554A032141482AF0E5FC5B
:102A000047E7534A03213E482AF0DFFC41E7514A99
:102A100003213B482AF0D9FC3BE74F4A02213848C2
:102A20002AF0D3FC35E797F824302BB14B4A032129
:102A300033482AF0CAFC2CE7494A022130482AF0E0
:102A4000C4FC26E7474A03212D482AF0BEFC20E7B4
:102A5000454A03212A482AF0B8FC1AE7434A0321D1
:102A600027482AF0B2FC14E7414A032124482AF0FF
:102A7000ACFC0EE73F4A032121482AF0A6FC97F858
:102A80002430002B7FF405AF21F044F801E73A4AE7
:102A900003211B482AF099FCFBE6384A0321184819
:102AA0002AF093FCF5E6364A032115482AF08DFCFE
:102AB000EFE6344A032112482AF087FCE9E6324A5D
:102AC00003210F482AF081FCE3E6304A03210C4839
:102AD0002AF07BFCDDE62E4A032109482AF075FC2A
:102AE000D7E62C4A032106482AF06FFCD1E62A4A91
:102AF000032103482AF069FCCBE600BFCC60030049
:102B00005C5B03007C660300646503005C6003009B
:102B1000746603006466030054660300E460030007
:102B2000FC600300146103002C6103004461030096
:102B3000586103008D590020E82400208E590020A0
:102B4000F82400207461030090610300B861030061
:102B5000D4610300FC6103001C62030040620300B7
:102B60006462030080620300A8620300D062030075
:102B7000F862030020630300446303006063030002
:102B80007C63030098630300B0630300D463030015
:102B9000F463030014640300386403005F4A0321F4
:102BA0005F482AF012FC97F82430002B00F0878051
:102BB0000BF01EFC00202FF0B9F80346594E5A4D79
:102BC00040F2462231462846FFF748FC00200BF031
:102BD00015FA034640F2472231462846FFF73EFCED
:102BE00097F8243013F0010F4CD0DFF840C113F0F8
:102BF000020F4AD04E496E4600233B7202237B727D
:102C00000123BB720323FB728AB002AD15F11002DF
:102C10003DD014201AB1042801DD464B6B6100231E
:102C20003B7102237B711AB1082801DDC5F818C079
:102C30000123BB710323FB7162BB13283CDD14230A
:102C400042B10421397200217972B9720221F972FC
:102C5000B86828616FF300046FF341046FF38204D6
:102C60006FF3C504032161F38814C3F30A0363F30C
:102C700053246FF31F5400232146294801F014FD0B
:102C8000B54606E6DFF8B0C0B1E72B49B3E76FF011
:102C90000040BFE70C2800DDE96105F120030021B9
:102CA00007E001F1280CBC441CF824CC03F801CB4C
:102CB00001310329F5D9C0E76FF01B03C0E71F4AB4
:102CC000032117482AF081FBE3E597F8246007F118
:102CD000080C1B4D0FCDACE80F002B68CCF8003072
:102CE000032E7FF4D6AD7B1C164A391DB81C0BF0A1
:102CF00061FFB7F90230B7F904200092124A0321AC
:102D000007482AF077FBC4E5104A012104482AF05D
:102D100066FBBEE52C37BD46F0BD00BF6064030016
:102D20005C5B0300646503005C600300A06003005B
:102D3000B46003008864030020920300A0640300D1
:102D4000C05B0300F8240020B8640300CC640300D7
:102D500000B583B0FFF73CFB002833D13C231E4A6B
:102D600003211E482AF03BFB05F032FC1EF082F9DD
:102D70001B480AF0D1FC0121084605F063FC002144
:102D8000084605F05FFC174B1B7853B9154B1B78B1
:102D9000002BF8D14FF420220023134823F006FA29
:102DA000F1E700200F4B1870019001A92EF098FF59
:102DB000019B13F0080FE9D06620FFF7F1FC20F02B
:102DC000C5FEE3E7094A012104482AF0FEFA012082
:102DD00003B05DF804FB00BF106503005C5B0300FB
:102DE000F52700008C590020D00F0020E06403007C
:102DF0002DE9F04F91B005920293134602F00402C0
:102E00000092C3F3C20210F00303019340F02B823F
:102E100080468A460132041D00284FD0B8F1000FC9
:102E200005D0A4EB08030433534500F21F82029B34
:102E30005D1E019B04930693039300264FF0FF3B16
:102E40000427B946B8F1000F01D0029B2360531E3E
:102E50000793002A40F35D81059B13F0020228D0FE
:102E60000120A4EB08018B081AB1B1F5007F80F0B6
:102E7000038203990F2900F20282B8F1000F00F0DB
:102E80006081DBB201F140026A4402F8103C02F8B2
:102E900020BC002800F0518163F07F0301F1400263
:102EA0006A4402F8103C049B01330493039B0133F2
:102EB000039304340022CC4640463DE001F0070A6B
:102EC0005444CAF1080AA9E7002634E0002632E09B
:102ED000002630E00827BC462DE025292BD10BF138
:102EE000010B01260427BC4625E04729EED82A29F4
:102EF00014D32A39C9B24FF0010E0EFA01F14FF680
:102F0000DA7E11EA0E0F16D111F0625F40F0C08038
:102F100011F0010F40F08C8000260CE0252903D130
:102F20000BF1FF3B002606E001D9002603E0202933
:102F300001D02329CCD11D466B1C6978002900F0F3
:102F40001981002EC9D07A29BED84C29CDD34C394D
:102F50002E2961D80FF2040E5EF821F0372F000001
:102F6000193000001930000019300000193000003D
:102F7000193000001930000019300000193000002D
:102F8000193000001930000019300000293000000D
:102F9000193000001930000019300000193000000D
:102FA00019300000193000001930000019300000FD
:102FB0009130000019300000293000002930000055
:102FC000913000009130000091300000372F000058
:102FD00029300000D52E000019300000372F0000E6
:102FE00019300000ED30000029300000ED30000005
:102FF0001930000019300000F530000023300000C7
:10300000293000001930000019300000293000007C
:10301000193000001D30000000268CE70427BC4654
:1030200089E70427BC4686E729786C2924D0002646
:103030003C44013CB4FBF7F407FB04F420B1211A33
:103040006144514500F21581002A58D1BCF1040FAA
:1030500000F08880BCF1080F40F014811A99073104
:1030600021F0070101F108051A95D1E9008908B19D
:10307000C4E9008908345EE713F8021C6C2903D008
:1030800000260427BC46D3E700260827BC46CFE726
:1030900029784C291AD01A99073121F0070101F13A
:1030A00008061A96D1E90067073424F0070440B1F6
:1030B000211A0831514513D829784C2913D0C4E975
:1030C0000067083400260827BC4634E71A99073100
:1030D00021F0070101F108061A96D1E90067E3E73C
:1030E0006FF01B00BCE0C4E90067EAE70026042794
:1030F000BC469DE7324600260427BC4698E7E146D9
:1031000080461A9A111D1A9112680292079A1D465A
:1031100098E6624B029A9A4204D3614B9A420AD3D0
:10312000002300E00023002B7FF496AE059B03F004
:103130000202002095E60123F5E7069B0133069382
:10314000B4E610B10AF1010AB0E6009B13B10AF12E
:10315000020AABE60298FCF7D3FF0AEB000303F187
:10316000020AA3E61A990D1D1A95096800B121609B
:103170000434E0E68046231AB3F5806F80F0858042
:1031800090B1002202609B080370009B83B1069BF4
:10319000C370049B88F802301BBB019DDDF80C90C6
:1031A000DDF810B0029F3DE05344A3F1080057E062
:1031B000069B4370EDE701339842EED903F14002DC
:1031C0006A4412F8101C12F9102C002AF3DA01F0EC
:1031D0007F01A4EB08020132524559D804F8011BC3
:1031E000E9E7019B0398E7E7009B43B305F1400340
:1031F0006B4413F8203C04F8013B019EA4EB080348
:1032000033440133534546D805F140036B4413F86A
:10321000103C04F8013B324639462046FDF7A0F940
:1032200034440135A94519D9BBF1000FDCD005F1B3
:1032300040036B4413F9103C002BD5DAF1E705F19C
:1032400040036B4413F8103C58F82370002248F8F0
:1032500023203846FCF754FF461CCFE7A4EB0800B8
:1032600011B0BDE8F08F6FF00D00F9E76FF01B00B3
:10327000F6E76FF01B00F3E76FF01500F0E76FF073
:103280001500EDE76FF01500EAE76FF01500E7E7CE
:103290006FF01B00E4E76FF01B00E1E7D45603007A
:1032A000F8D103002DE9F04F97B000AF8346BA6123
:1032B0003B61D7F88030C3F3C0033B62F96011B9BA
:1032C00029F091F8F8609BF80260B14636B1D7F862
:1032D000803013F0010F0DD1002300E000239BF894
:1032E00003207A6242B1D7F8802012F0020F22D177
:1032F000002202E00123F2E7002202B9EBB19BF8C1
:103300000050AA00BA60DBF804207A610BEB850557
:10331000BA69F2B1002B40F00481B9F1000F00F05E
:103320000F81D7F8803013F0040F40F00D8100209A
:10333000F8610646F9E00122DFE7BB691BB13A6993
:10334000F96858469847FC6820465C37BD46BDE89A
:10335000F08FFC68E3B94D4400233B6123E0044453
:10336000013501364E451AD22A7800235BF8222017
:103370001946B86929F04CF8BAF1000FEFD0D7F828
:1033800088309845EBD22AF8180008F10108E6E7E2
:103390000026C7F81C80B046D7F884A0E2E7C7F83B
:1033A0001080D7F81C80D7F8803003F00503FB604D
:1033B0004FF0000AA146C7F81CB09CE000253B6A0C
:1033C0007BB9002D79D0D7F8803013F0010F79D177
:1033D000FB68002B6FD10223A9EB030988E00125CC
:1033E000EDE75946786929F059F80028E9D06C468C
:1033F000002387F82C30022387F82D308AB06946E5
:1034000011F1100237D012251AB1042D01DDB34B92
:103410004B61002387F82830022387F829306ABBE4
:10342000112D45DD122362B1042087F82C00002005
:1034300087F82D0087F82E00012087F82F00F86A02
:1034400008616FF300086FF341086FF382086FF3B0
:10345000C508022161F38818C3F30A0363F35328F4
:103460006FF31F58002341469D4801F01DF9A54602
:10347000A9F102093CE06FF00045C5E72B46082D95
:1034800001DD786988610C2B01DDC1F81CB001F108
:103490002003002009E000F1300C07F1280EF4446D
:1034A0001CF830CC03F801CB01300128F3D9B7E781
:1034B0006FF01B03B7E701238EE7D7F8803013F0D6
:1034C000020F15D0002322461946B86928F0A0FF44
:1034D000D7F8843053B13B69D7F88820934205D29E
:1034E000D7F8842022F8130001333B61013881446E
:1034F0000AF1010A35467B6A9A4510D22E4616F823
:1035000002BB6B78FA6952F82340764B9C42FFF479
:1035100055AF754B9C42FFF462AF00254FE74C4618
:1035200012E707F144000023FB6118B14A4629461F
:10353000FDF716F84D444FF00008C7F804901EE060
:103540000020F8610646F0E7FE6107F1340000262E
:10355000EBE700253B6A33BB002D3BD0D7F880302A
:1035600013F0010F26D0731C06F1300207F1280179
:10357000561806F8149CDEB208F1010825467B6A4D
:1035800098454AD22C4614F802AB95F801905BF8A6
:103590002930544A9342DCD3534A934201D3002545
:1035A000D8E70125D6E75146786928F077FF00284B
:1035B000D2D0E1E7D7F8803013F0040FDCD0FA69FD
:1035C000531C303207F128010A4402F8249CDBB274
:1035D000FB61D1E7D7F8803013F0020F09D0731CDC
:1035E00006F1300207F12801561806F8149CDEB2E5
:1035F000C2E7F869431C00F1300107F128028A187C
:1036000002F824AC02460232D2B2FA6107F1580243
:1036100052FA83F303F8249CAEE7D7F804909BF8A2
:10362000003087F854309BF80130334487F8553028
:10363000D7F8803013F0020F0ED1FB69C3F34703B4
:1036400087F85730D7F8803013F0010F06D113F008
:10365000040F3ED1002302E00023F1E7002387F8A6
:103660005630DBF800003863786DCBF80000D7F8EF
:1036700010804246B9685846D7F818A0D047041EB3
:10368000FFF662AE386BCBF80000C7F810804246F8
:10369000F96907F13400D04700285EDB04EB00082D
:1036A000B96849447B6A01EB4301D7F810904A4658
:1036B000FB68591A2846D047041EFFF645AE08EBB2
:1036C00004054FF00008C7F824B0B3465446CA4674
:1036D00021E0FB69C3E74FF0000909E084660300BD
:1036E000D45A0300D4560300F8D103004FF0000968
:1036F0005246012107F12C00A04700282FDB05448A
:103700004B4632465146204628F082FE002828DBF0
:10371000054408F10108D84518D208F1300307F133
:103720002802134413F8143C87F82C307A6A52F8B4
:103730002360D7F88430002BCDD0D7F88830984557
:10374000D4D2D7F8843033F81890D1E73A69002101
:103750000846BB6998472C46F6E50446F4E504465E
:10376000F2E50446F0E500BF014B1860704700BF6A
:103770009806002010B586B00446039004910021FD
:103780000591009103A9064800F0DAF8059B049A18
:10379000934201DA0022E254059806B010BD00BF42
:1037A000EFC4020084460268002006E000EB8000BF
:1037B000013203EB4003A3F1300013780349C95CE5
:1037C00011F0040FF2D1CCF8002070471DCF030098
:1037D00084460846012226E09CF8003043F00403AA
:1037E0008CF80030F2B101301CE09CF8003043F05E
:1037F00008038CF80030F5E79CF8003043F0100324
:103800008CF80030EEE79CF8003043F020038CF891
:103810000030E7E79CF8003043F040038CF80030BC
:10382000E0E7002242B30378203B102BF9D801A136
:1038300051F823F0F9370000233800002338000046
:103840000738000023380000233800002338000028
:1038500023380000233800002338000023380000FC
:10386000EB37000023380000D93700002338000070
:1038700023380000153800009CF8003003F04403A2
:10388000442B00D070479CF800306FF386138CF8FF
:103890000030F7E72DE9F84F05460C469346994668
:1038A0000A9ED078254B13F800A00AF0030A28F0EE
:1038B000DAFF074614E0BAF1010F20D0D2B2573236
:1038C000D2B232703A46434628462146FDF7A4FC60
:1038D000BD4274F1000416D34E4514D905460C467A
:1038E0004FF000083A46434628462146FDF794FC2F
:1038F000013E092ADFD8D2B23032D2B2E1E7D2B2E9
:103900003732D2B2DDE79BF8003013F0200F03D03E
:10391000082F04D0102F09D03046BDE8F88F9BF84F
:10392000023043F008038BF80230F5E79BF80230D1
:1039300043F010038BF80230EEE700BF1DCF030009
:103940002DE9F04F91B006460D46914603930024B1
:1039500099F80000002800F0B982252808D02946EF
:10396000B0470028C0F2B382013409F10109EFE742
:1039700000230493059306930793089309934946FC
:1039800006A828F04EFF02909DF8193013F0010FA1
:1039900000F09780039B1A1D03921F68002FC0F24E
:1039A00088809DF8193013F0040F00F09C80039B71
:1039B0001A1D0392D3F800A0BAF1000FC0F28A805A
:1039C0000023079308939DF81A3003F007039DF82E
:1039D0001910C1F3C301012B00F08E80022B00F0FF
:1039E000D380042B00F02481032B00F03B819DF851
:1039F000188018F0030B40F03B819DF81B30253BED
:103A0000532B00F2CA81DFE813F04001C801C8015E
:103A1000C801C801C801C801C801C801C801C8015E
:103A2000C801C801C801C801C801C801C801C8014E
:103A3000C801C801C801C801C801C801C801C8013E
:103A4000C801C801C801C801C801C801C801C8012E
:103A5000C801C801C801C801C801C801C801C8011E
:103A6000C801C801C801C801C801C801C801C8010E
:103A70009D01C801C801C801C801C801C801C80129
:103A8000C801C801C8017A018301C801C801C80181
:103A9000C8018301C801C801C801C801BD019D0159
:103AA0005E01C801C8014D01C8019D01C801C801DE
:103AB0009D019DF8183043F004038DF818307F42C3
:103AC0006FE79DF91830002B02DB4FF0FF3768E7F6
:103AD000079F66E79DF819306FF341038DF81930A1
:103AE0004FF0FF3A6CE713F0020F02D0DDF820A090
:103AF00066E74FF0FF3A63E7CB1E042B04D8DFE8FC
:103B000003F00B1D29353500039B1A1D03921B681A
:103B1000DA170493059206E0039B1A1D03921B68B3
:103B2000DA1704930592012928D002297FF45FAFA8
:103B3000BDF91030DA170493059258E7039B073359
:103B400023F0070303F108020392D3E90023CDE930
:103B50000423E8E7039B073323F0070303F108027C
:103B60000392D3E90023CDE90423DCE7039B1A1D6C
:103B700003921B68DA1704930592D4E79DF910307D
:103B8000DA170493059232E7CB1E042B04D8DFE842
:103B900003F00B1F35414100039B1A1D03921B6864
:103BA0000493002305931EE09DF81B30632B07D080
:103BB000039B1A1D03921B6804930023059312E0D4
:103BC000039B1A1D03921B680493002305930AE0CC
:103BD000039B073323F0070303F108020392D3E9A1
:103BE0000023CDE9042301291CD002297FF4FFAE74
:103BF000BDF81030049300230593F8E6039B0733C8
:103C000023F0070303F108020392D3E90023CDE96F
:103C10000423E8E7039B1A1D03921B680493002307
:103C20000593E0E79DF81030049300230593DEE64A
:103C300008290BD0039B073323F0070303F1080285
:103C40000392D3E90023CDE90423D0E6039B073395
:103C500023F0070303F108020392D3E90023CDE91F
:103C60000423C4E6039B1A1D03921B680493BEE65B
:103C7000029F3B464A462946304628F028FE002847
:103C8000C0F225810444B94662E629462520B047A2
:103C90000028C0F21C810134D8460DF13E0A4FF0D5
:103CA00000097FE0DDF81090BAF1000F06DA48460F
:103CB000FCF726FA09EB000AD84673E0514648465D
:103CC00024F082F9F6E7049828B9D846DFF804A270
:103CD000AAF1050966E00DF13E0300930AAB06AABE
:103CE0000021FFF7D7FD81469DF81A3043F01003FD
:103CF0008DF81A3078238DF81B30D8462DE0049BC0
:103D00008DF82830D8460DF1290A0DF1280949E02F
:103D100018F0080F05D118F0100804D04FF0200853
:103D200001E04FF02B08049A059B002B02DB049264
:103D3000059308E0524263EB4303049205934FF06E
:103D40002D0800E0D8460DF13E0300930AAB06AA09
:103D5000DDE90401FFF79EFD8146BAF1000F50DB5B
:103D60000DF13E03A3EB09039DF818206FF38612B3
:103D70008DF818209A4547D9AAEB030307930DF154
:103D80003E0A0FE02246049906A828F081FDD84695
:103D90000DF13E0A4FF0000904E0D8460DF13E0A4D
:103DA0004FF00009B9F1000F00F08D80AAEB090275
:103DB000B8F1000F00D001329DF81A1011F0100F69
:103DC00025D00232079B134411F0400F01D0089A0E
:103DD0001344002F31DDFF1A9DF8183013F0040F43
:103DE0002BD113F0400F17D0B8F1000F17D0294690
:103DF0004046B04700286ADB0134D8464FF0300B0C
:103E00000FE00DF13E0ACDE70DF13E0ACAE711F0D1
:103E1000080FD7D00132D5E74FF0200B01E04FF06B
:103E2000300B3B465F1E002B07DD29465846B04746
:103E300000284CDB01343B46F4E7B8F1000F05D015
:103E400029464046B047002841DB01349DF81A302E
:103E5000C3F30012C3F3C0031A4305D02946302030
:103E6000B047002833DB01349DF81A3013F0100FEF
:103E700006D029469DF81B00B047002827DB0134F7
:103E8000079B03F1FF38002B07DD29463020B047A0
:103E900000281CDB01344346F3E753464A462946D3
:103EA000304628F014FD002811DB0444002F07DD04
:103EB00029462020B047002809DB0134013FF5E7FF
:103EC000DDF8089044E5DDF8089041E5204611B0A2
:103ED000BDE8F08F4167030008B50446EFF3118396
:103EE000202383F31288BFF36F8F04F015FA204666
:103EF00029F00FFE024828F015FB29F093FCFCE79F
:103F0000446703002DE9F04383B004460846154694
:103F1000238B13F0080F05D103F00706002300934D
:103F2000019354E0012909D043F02003238385F352
:103F30001188BFF36F8F03B0BDE8F08343F0100327
:103F40002383F4E7204629F002F842E0D4F81490E5
:103F50004A466946204629F013F84FF00008238BA3
:103F600003F00707B74269D0A268002A66D0012291
:103F700043F00803238385F31188BFF36F8F002A72
:103F800064D1009B2BB14B463A466946204629F046
:103F900070F8B8F1000F02D034492046C047EFF363
:103FA0001185202383F31288BFF36F8F238B23F0B7
:103FB00008032383238B13F0100F4DD023F010033D
:103FC00023830120268B06F007060028AFD00228A5
:103FD000B8D00028ABD0013804282BD801A353F85F
:103FE00020F000BF4D3F000035400000F93F0000C9
:103FF0000D400000214000002369D3F80080062115
:10400000204628F07AFF4FF00009A8E72369D3F88B
:1040100004800421204628F070FF4FF000099EE73D
:104020002369D3F808800521204628F066FF4FF069
:10403000000994E74FF00008C14690E7009A0AB1E2
:10404000002295E7B8F1000F92D1B3E74A4639460E
:10405000204628F05AFF94E713F0200F04D023F0F5
:10406000200323830220ADE70020ABE7A1D00200AC
:1040700038B505460B4C00E010340B4B9C420FD278
:1040800063685B79002BF7D02946204629F0E7F8D2
:104090000028F1D023681B68294620469847EBE7A3
:1040A00038BD00BF645B0300745B030070B5064657
:1040B0000D46084C04E02A46314620469847103405
:1040C000054B9C4204D223689B69002BF3D1F6E791
:1040D00070BD00BF645B0300745B03002DE9F04119
:1040E000074605460AE007EA0807144B03EB0613E8
:1040F0005B6804221968204629F0FBF8D5B195FACF
:10410000A5F6B6FA86F60D4C04EB06140123B3406F
:104110006FEA030825EA0305237B002BEED0330169
:10412000064AD3581B69002BDDD02046984700284B
:10413000E4D1D8E73846BDE8F08100BF645B0300F6
:104140002DE9F04180460F461F4BBFF35B8F53E8CC
:10415000005F6A1C43E800210029F8D1BFF35B8FA0
:104160006DBB1A4C002607E06368042219682046DC
:1041700029F0BFF801361034154B9C4211D2237B35
:10418000002BF7D0204629F05EF823681B69002B2E
:10419000EAD0204698470028E6D00123B3401D43CB
:1041A000E8E7B8F1000F0BD055B12846FFF796FFAE
:1041B0000546002FF8D00A2029F057F8F4E700252B
:1041C0002846BDE8F08100BF0C260020645B030098
:1041D000745B030008B5064B186018B1054B1B68EB
:1041E000092B00DC08BD044821F098FFFAE700BF66
:1041F0000026002008260020B80F002008B502483D
:1042000021F08CFF08BD00BFB80F002030B589B089
:1042100000220F490F4831F050F90F4D00220023C2
:10422000CDE90623002404940E2303930294019401
:1042300000940A4B4FF440720949284630F020FFA1
:104240000849284622F0A4F8204609B030BD00BF36
:10425000FD410000B0200020F00F0020D9450000F3
:10426000C059002070670300014B53F820007047CD
:104270008C67030048B108B5054A1060054B19600A
:10428000084600F007FD002008BD6FF015007047DC
:104290009C060020FC25002008B5054B1B781BB1AF
:1042A000034B01221A7008BD024821F037FFF7E7DF
:1042B0008F590020B80F002008B5104BBFF35B8F5B
:1042C00053E8001F013143E80012002AF8D1BFF380
:1042D0005B8F30B90A4831F0FCF80A4821F01EFF24
:1042E00008BD094BBFF35B8F53E8001F013943E85A
:1042F0000012002AF8D1BFF35B8FEBE70426002001
:10430000B0200020B80F002008260020064B002017
:104310000146BFF35B8F53E8000F43E80012002A09
:10432000F9D1BFF35B8F70470426002038B5FFF743
:10433000EDFF0546094C00E01034094B9C420BD2BE
:1043400063685B79002BF7D023685B68002BF3D0A0
:10435000294620469847EFE738BD00BF645B03005D
:10436000745B0300034B18680028D4BF00200120B1
:10437000704700BF0426002010B5044C04492046B5
:1043800028F016FC034B1C6010BD00BFD40E0020AB
:1043900078670300F825002008B500230C4A137045
:1043A0000C4A13600C4A13604FF400410B48FFF7AE
:1043B00061FFFFF7E1FF0A4A06E0094BD31A1B1120
:1043C000013351680B711032064B9A42F5D308BD88
:1043D00090590020042600200826002063D2020005
:1043E000645B0300745B030008B50146014828F0D4
:1043F00052FF08BDD40E002008B5024828F0BBFCCF
:1044000008BD00BFD40E002008B50146024B186855
:1044100028F047FF08BD00BFF825002008B5024876
:1044200028F043FF08BD00BFD40E002010B582B0B5
:1044300000220023CDE90023284B187808B902B0E8
:1044400010BD684628F049FF044680B1FFF710FE12
:104450002046FFF7D9FF224BBFF35B8F53E8001FC5
:10446000013943E80012002AF8D1BFF35B8FFFF750
:1044700079FF58B91B4A1368516813F57A7341F1F3
:10448000000113605160FFF7C9FFD8E731F006F86B
:104490004A0142EAD06243011B1A62EB0102920018
:1044A00042EA93729B001B1842EB0102D20042EADF
:1044B0005372C3F3103343EA4243D20B09480168F5
:1044C00040685B1A62EB000240F2E9318B4272F104
:1044D0000002CFD3FFF72AFFCCE700BF8F5900209F
:1044E00008260020A82000200F4B1B7803B170473E
:1044F00010B500210120FFF723FE0C4C00E0103422
:104500000B4B9C4208D263685B79002BF7D0236881
:104510009B6820469847F2E7FFF788FF0028FBD109
:10452000014B01221A7010BD90590020645B0300FA
:10453000745B030010B582B01A4BBFF35B8F53E876
:10454000002F511C43E800100028F8D1BFF35B8F07
:10455000154B1B7863B9154B1B68B3B1BAB1092A67
:1045600013D1134830F0B5FF124821F0D7FD0CE00D
:10457000EFF31184202383F31288BFF36F8FFFF7CB
:1045800055FF84F31188BFF36F8F02B010BD002276
:104590000023CDE900234FF400420023044822F019
:1045A000BDFEF2E7082600209059002000260020DA
:1045B000B0200020B80F002010B50446044B1B6843
:1045C0009847A0602146034828F08BFE10BD00BF2D
:1045D0009C060020D40E00202DE9F0410021084661
:1045E000FFF7AEFD804640B140F26766002722F03B
:1045F0002FFBFFF7EFFD002515E04FF0FF364FF0E2
:10460000FF37F4E74046FFF769FD804670B94FF089
:10461000FF364FF0FF3709E02C4632463B4609484B
:1046200021F0C4FD2546B8F1000FEBD1FFF7FEFEE7
:1046300004460028F6D1002DEED000210846FFF7F1
:1046400035FDEAE7B80F00200248034BC01AC00846
:10465000704700BF645B0300D45A030010B50C46DA
:10466000FFF7F2FFA04203D9024B53F8340010BD0C
:104670000020FCE7D45A030000B589B005920693E8
:104680000023079362B1074A0C9B02930B9B019393
:104690000A9B009305ABFEF705FE09B05DF804FB2D
:1046A0000022F1E709D302002DE9F04F8BB004AFEF
:1046B00005461E468846C1F34A24002C00F0898036
:1046C00091460022FA603A617A6104230293FB1852
:1046D00001930A23009307F10C0321464846FEF795
:1046E000E1FDB0F5006F58D3D9F804106D460023F2
:1046F0003B7302237B738AB004AC14F1100217D011
:1047000012201AB1042801DD3B4B636100233B708A
:1047100002237B70CAB10346082800DDA1610C2B7F
:1047200002DD40F2FF73E36104F1200300210AE09F
:104730006FF00040E5E701F118063E4416F8186CEA
:1047400003F8016B01310129F5D9112822DD12236B
:1047500042B10421397300217973B9730121F973CE
:10476000F868206100216FF300016FF341016FF3DE
:1047700082016FF3C501022060F38811C3F30A03BD
:1047800063F353210023C1F313011C4828F03FFEBB
:10479000AD462DE06FF01B03DAE760F35328C0F35A
:1047A0000A0A0AEB1850173020F007008008FFF7BC
:1047B0001BFE8346B0B104230293FB1801930A2326
:1047C0000093534600F1100221464846FFF754FF7C
:1047D00008E004EB1154173424F00704A008FFF795
:1047E00003FE8346334642462946584628F0A5FD37
:1047F0001C37BD46BDE8F08FAC670300F45A0300D8
:104800002DE9F04F85B080460D4617461E46DDF86F
:1048100038B0DDF84090B9F1000F41D0119B0393FF
:1048200000934B460F9A10210020FEF7E1FAB0F5F5
:10483000006F2DD282460BEB0003173323F00703E2
:1048400000246FF300046FF341046FF3820468F3F4
:10485000C50467F3881460F353246BF31F5498085E
:10486000FFF7C2FD074650B11030B9F1000F06D076
:10487000119B00934B460F9A5146FEF7B9FA334607
:1048800022462946384628F058FD05B0BDE8F08F8D
:1048900040F2FF73034A0221034828F0A0FDF4E729
:1048A0000020C7E7EC670300F45A0300406820B11A
:1048B000034BC01A40F3CF0070474FF0FF307047F2
:1048C000D45A03000EB400B584B0014605AB53F8CA
:1048D000042B0393002000900348FFF731F804B045
:1048E0005DF804EB03B0704745D4020010B584B006
:1048F00011F0440F05D01A4B1B6833B9002004B0E7
:1049000010BD1849FFF7DEFFF9E717490968B2FB48
:10491000F1F2B2FBF3FC03FB1C224FF47A7E0EFB98
:1049200002F2B2FBF3F403FB14210EFB01F1B1FB25
:10493000F3F10E4AA2FB0C32D20A4FF4616303FB7F
:1049400012CC0B4BA3FB0CE35B0902910194C3EB6C
:104950000311ACEB810100910649FFF7B3FFCEE7ED
:10496000142600202468030010260020C5B3A2915D
:10497000898888883068030061B108B52AB1064A81
:1049800052F8232012B9054A00E0044A0449FFF70F
:1049900099FF08BD704700BFA86803004C6803007A
:1049A000085F03002DE9F04105461746069EDDF835
:1049B0001C8081B900242EB1324611492846FFF7E8
:1049C00081FF0444B8F1000F14D06FB1099B042B90
:1049D00013D00C4909E00C4B099A53F822200B49DB
:1049E000FFF770FF0446E6E7064942462846FFF710
:1049F00069FF04442046BDE8F0810549F5E700BFA2
:104A00006868030058680300CC680300606803000E
:104A1000546803002DE9F04F87B005460C46049218
:104A200005939DF84C7001F0020B01F0010AC1F3EF
:104A3000C00801F4807928F05AFC18B302461649E0
:104A40002846FFF73FFF0646BBF1000F1CD13A4650
:104A50005146284628F029FDB9F1000F01D0002366
:104A600011930397129B0293119B0193109B009348
:104A70000023049A41462846FFF794FF304407B0CC
:104A8000BDE8F08F0026DFE7059A21462846FFF7AC
:104A90002DFF0644DBE700BF6C68030011F0100F28
:104AA0000BD108B511F0200F03D00449FFF70AFF1E
:104AB00008BD0349FFF706FFFAE7704714AC03008F
:104AC000706803002DE9F04105460F4616469846EA
:104AD0000699FFF7E3FF0024444505DA24492846F8
:104AE000FFF7F0FE0134F7E7002409E020492846EB
:104AF000FFF7E8FE0BE01F492846FFF7E3FE01340D
:104B00000F2C0CDC002C02DD14F0070FEED0B442A9
:104B1000F1D23A5D18492846FFF7D4FEEFE717496E
:104B20002846FFF7CFFE002409E011492846FFF789
:104B3000C9FE0BE012492846FFF7C4FE01340F2CD2
:104B400013DC002C02DD14F0070FEED0B44207D2C4
:104B50003A5D0C4B9B5C13F0970FEBD12E22E9E7EB
:104B600003492846FFF7AEFEE8E7BDE8F08100BF45
:104B7000646803007C6803007468030080680300B5
:104B8000846803001DCF03002DE9F04184B0044682
:104B90009DF82C500C9F0E9E95B9012B1ED01948E4
:104BA0004FF0000827B13B462246174927F046FC44
:104BB000C6B905BB204628F02EFC04B0BDE8F08144
:104BC00003950A980290019300920B4600220F99D8
:104BD0002046FFF71FFF80460C48E3E70B484FF0E5
:104BE0000008DFE70F9B0093434632460D992046AD
:104BF00028F073FCDDE72A460F99204628F061FC77
:104C0000D8E700BF7DD402009BD4020045D4020047
:104C10002DE9F04383B00646056842F20F738B42DC
:104C200028BF0B46184A0521684627F089FC044630
:104C30007368D3F804900427DFF8508005E04A46F3
:104C400039464046A8473F1A8044002FF7D1736881
:104C5000D3F804806F4605E0424621463846A8470F
:104C6000241A0744002CF7D173685F681724084E94
:104C700005E03A4621463046A847241A0644002C4F
:104C8000F7D103B0BDE8F083446A0300A0680300D5
:104C900088680300074B01221A6004E04008054AB7
:104CA00013685B001360044B9842F7D8034B1860FD
:104CB000704700BF1026002040420F00142600203D
:104CC00070B506460D46002405E0315D0448836852
:104CD0005B6898470134AC42F7D3284670BD00BFEB
:104CE000E457030030B583B043681C6865680DF174
:104CF00007010A4828F084FC18B99DF80730012BF9
:104D000006D001232B77206828F035FC03B030BD96
:104D10000121024800F00AF8F3E700BFE45703005E
:104D2000014B0360002070473469030070B5056AC9
:104D3000002D41D00C462B79244A565CB3423ED01C
:104D4000234A525C93423DD1AB689847002804DB6C
:104D50002E71022C16D000202DE0022C10D0032C36
:104D600029D110F1860F0BD0BFF35B8F55E8003FC0
:104D700043F0020345E80032002AF7D1BFF35B8F0E
:104D80002E7118E0BFF35B8F55E8003F23F004035A
:104D900045E80032002AF7D1BFF35B8FBFF35B8F8A
:104DA00055E8003F23F0020345E80032002AF7D11E
:104DB000BFF35B8F002070BD6FF05700FBE76FF013
:104DC0007700F8E76FF08500F5E700BF386903006A
:104DD000346903008446002300E00133074A126867
:104DE0009A4208DD1A010649096801EB03108A5C42
:104DF0006245F2D100E00020704700BF486903001F
:104E0000A806002038B50C4B1B685BB10C46FFF7B9
:104E1000E1FF054648B1C06830F08BF840B125602D
:104E2000002038BD6FF00C00FBE76FF00100F8E7E1
:104E30006FF01200F5E700BFA80600202DE9F04151
:104E400082B000AF0446D0F800E0D0F804C0856816
:104E50006E468AB06B4613F1100200F08880142170
:104E60008AB10846042903DDDFF81C81C3F81480E9
:104E7000082801DDC3F818E00C2801DDC3F81CC0C8
:104E8000102800DD1D62132974DD14253AB10521B7
:104E9000397100217971B971F9717868186100214F
:104EA0006FF300016FF341016FF382016FF3C501EE
:104EB000012363F38811C5F30A0565F353216FF3EA
:104EC0001F5100233148FFF7EFFBB546D4F80CC063
:104ED00026696569E8468AB06B4613F110024CD02A
:104EE000142182B10846042903DDDFF8A4E0C3F8E9
:104EF00014E0082801DDC3F818C00C2800DDDE61CD
:104F0000102800DD1D6213293ADD14253AB1052170
:104F1000397100217971B971F971786818610021CE
:104F20006FF300016FF341016FF382016FF3C5016D
:104F3000012666F38811C5F30A0565F353216FF363
:104F40001F51124D00232846FFF7AEFBC546E3690B
:104F5000104A3146284628F042FAA3690E4A3146E3
:104F6000284628F03CFA0837BD46BDE8F0816FF0CE
:104F7000004175E76FF01B0588E76FF00041B0E76F
:104F80006FF01B05C2E700BF946903002C5B0300B0
:104F9000C4690300F4690300046A030038B50446D9
:104FA0000D4611B10846FFF749FF012C04D02946F0
:104FB000204620F08DFD38BDEFF30583103B034AFA
:104FC0000121034828F00BFAF1E700BF346A03001F
:104FD0002C5B030030BFFFF7FDBF00BF054B5A69D4
:104FE0009B689A4204D0044A536843F0805353604C
:104FF000704700BF1859002000ED00E081690D4B9B
:105000005A6942F480725A61BFF34F8FBFF36F8FBA
:1050100031F8021C5A6922F480725A61BFF34F8F33
:10502000BFF36F8F4DF60273994201D00020704795
:105030000120704700ED00E04FF0000C83F800C045
:1050400002F07F4CBCF17F4F14D102F00C0CBCF18C
:10505000080F04D012F0080F09D00846704708B5B1
:10506000054A0121054828F0B0F9002008BD0122B9
:105070001A70704700207047486A03002C5B0300D9
:1050800008B52B4A01212B4828F09FF92A4B9B6A2F
:1050900013F0007F21D11D20274B9B6A13F0807FE6
:1050A00022D1254B9B6A13F4002F24D1224B9B6AFB
:1050B00013F4802F26D1204B9B6A13F4003F28D194
:1050C0001D4B9B6A13F4803F2AD11B4A936A6FEAF7
:1050D00003436FEA1343936208BD184A0121154840
:1050E00028F073F91E20D7E7154A0121114828F04E
:1050F0006CF91F20D5E7134A01210E4828F065F905
:105100002120D3E7104A01210A4828F05EF9222025
:10511000D1E70E4A0121074828F057F92320CFE7AD
:105120000B4A0121034828F050F92420CDE700BFA5
:10513000746A03002C5B030000ED00E08C6A03003E
:10514000A06A0300BC6A0300DC6A0300046B03006E
:10515000206B030008B500230B70034A01210348AC
:1051600028F033F908BD00BF4C6B03002C5B030033
:1051700090B583B000AF0F2923DC2F4C10390023EA
:105180003B7102237B718AB0EC461CF110021AD0ED
:10519000122022B1042802DD284BCCF81430002361
:1051A0003B7002237B70E2B10346082801DDCCF896
:1051B00018400C2B01DDCCF81C100CF12003002151
:1051C0000DE01F4CDAE76FF00040E2E701F1080460
:1051D00004EB070E1EF808EC03F801EB013101297E
:1051E000F4D9112824DD12234AB104213971002198
:1051F0007971B9710121F9717868CCF8100000213A
:105200006FF300016FF341016FF382016FF3C5018A
:10521000012060F38811C3F30A0363F353216FF392
:105220001F5100230748FFF73FFA0C37BD4690BDDA
:105230006FF01B03D8E700BF706B0300A46B030083
:10524000886B03002C5B0300F8B505460F46144637
:10525000374A0121374828F0B8F8374B9B6A13F4D6
:10526000805F25D11626344B9B6A13F4006F26D13C
:10527000314B9B6A13F4007F28D12F4B9B6A13F4A8
:10528000806F3FD12C4B9B6A13F4807F41D12A4B16
:105290009B6A13F4005F43D1274A936A43F47F4328
:1052A00093620121284628F079FA20703046F8BD33
:1052B000224A01211F4828F088F81726D3E7204A00
:1052C00001211C4828F081F81826D1E71D4A012148
:1052D000184828F07AF8184A936B926A12F4004F33
:1052E00001D11926C9E7184A0121124828F077F898
:1052F00037B1114A936A23F4004393621926BCE73D
:105300001926BAE7114A01210A4828F05EF81A2640
:10531000B8E70F4A0121074828F057F81B26BBE7DA
:105320000C4A0121034828F050F81C26B4E700BFBE
:10533000B86B03002C5B030000ED00E0D06B0300B2
:10534000E46B0300F86B0300146C03002C6C030087
:10535000486C0300606C03002DE9F04104460F46E1
:105360001546464A0121464828F02FF8454B9B6ACE
:1053700013F0100F3CD11026424B9B6A13F0080F1C
:105380003DD1404B9B6A13F0020F3FD16FF01508DF
:105390003C4B9B6A13F0010F58D13A4B9B6A13F0B8
:1053A000200F5AD1374B9B6A13F0100F04D1354BA5
:1053B0009B6A13F0020F04D0324B5B6813F4006F4A
:1053C00052D1304B9B6A13F0200F04D02D4A536A00
:1053D00023F4005353622B4A936A43F0FF03936212
:1053E0000121204628F0DAF928703046BDE8F08126
:1053F000254A0121224827F0E8FF1126BCE7234A6D
:1054000001211F4827F0E1FF1226BAE7204A0121B7
:105410001B4827F0DAFF1B4BD3F834809B6A13F04C
:10542000800F03D16FF015081326B1E74346194AE0
:105430000121134827F0D3FF37B1124A936A23F0B2
:10544000800393621326A3E71326A1E7124A0121E2
:105450000B4827F0BAFF14269FE7104A012108489D
:1054600027F0B3FF15269DE72146404600F0E2F9FC
:105470000028A6D080F309880226A2E7906C0300DA
:105480002C5B030000ED00E0A86C0300E46B03005C
:10549000DC6C0300F46C03000C6D0300606C030013
:1054A00070B506460D462B4A01212B4827F08DFF8B
:1054B00000232B70294BDC6A14F002040AD1274B1D
:1054C000DB6A002B0DDB254BDC6A14F080440ED127
:1054D000204670BD224A01211F4827F076FF002494
:1054E000F6E7204A01211C4827F06FFFF0E71E4A2B
:1054F0000121194827F069FF3046FFF77FFD98B971
:10550000164B9B6A13F0FF0F16D1144B9C6A14F4D0
:105510007F4418D1114B9B6AB3F5803FD8D33046F6
:10552000FFF7AEFD0446D3E73368104A01210A486D
:1055300027F055FF3468CBE72A4601213046FFF7B4
:105540000BFF0446C4E72A4601213046FFF77CFEE4
:105550000446BDE72C6D03002C5B030000ED00E06A
:10556000446D0300686D0300786D0300986D0300BF
:1055700030B58BB01F4B5D68C5F30805002383F37E
:105580001188BFF36F8F0DF12603FFF755FD044619
:105590000DF12702294628F003F99DF827300BB1B9
:1055A0000BB030BD05460DF1040C20686168A2689F
:1055B000E368ACE80F0020696169A269E369ACE8BF
:1055C0000F009DF826304BB1089BC3F308025AB96F
:1055D0006FEA53236FEA4323089305E0089B23F403
:1055E000FF7323F00103089301A92846FFF7D6FCB7
:1055F000D6E700BF00ED00E0044B5A6942F010020C
:105600005A615A6922F008025A61704700ED00E0C1
:10561000EFF30880EFF3098101B57246FFF7A8FFA9
:1056200001BD00BF0D4880F3088800200C490870B8
:105630001EF0B8FC202080F311880A484FF4046162
:10564000401880F30988EFF314800221084380F3A7
:105650001488BFF36F8F00F0AFF8000000870020C0
:105660009A590020406D002008B50A4B9B68834280
:1056700002D021F0F3FA08BDEFF30583002BF8D038
:10568000054B5A6842F080525A605A6A22F400422E
:105690005A62EEE71859002000ED00E013498A68CD
:1056A0004FF030001044EFF3098C80E8F01F202009
:1056B00080F31288BFF36F8F0D4F4FF000664A6979
:1056C0008A603E60D2F8AC000023C2F8AC3080F3B0
:1056D000118804B5104600F029F9BDE8044002F134
:1056E000300090E8F01F8CF30988704718590020AB
:1056F00004ED00E01EF0040F0CBFEFF30880EFF3A1
:105700000980816911F8021C0229FFD001B5724697
:1057100028F038F801BD00BF002807DB00F01F02A9
:10572000400901239340024A42F82030704700BFED
:1057300000E100E000280CDB00F01F02400901231B
:1057400093402030034A42F82030BFF34F8FBFF31D
:105750006F8F704700E100E0002808DB4901C9B203
:1057600000F1604000F5614080F80013704700F0E0
:105770000F004901C9B2014B1954704714ED00E004
:105780004209054B53F8222000F01F00012303FAC1
:1057900000F01040704700BF00E100E0044B23F030
:1057A0007F03044A9360BFF34F8FBFF36F8F70473F
:1057B0000000000000ED00E008B5FFF7EFFF0B4A26
:1057C000D2F8883023F47003C2F88830EFF31483E2
:1057D00023F0040383F31488BFF36F8F20F028FBBA
:1057E00021F0B6FB00F06AF820F082FB00ED00E04B
:1057F00010B4A2F120040E4942F8081C21F0010166
:1058000042F8081C42F8203C019B42F81C3C029BD9
:1058100042F8183C039B42F8143C4FF0807342F866
:10582000043C04650023C0F8AC3010BC704700BFD6
:105830005DC50200104B9B68BBB110F1160F0BD079
:10584000D3F89C20A2F1400C844510D8824210D994
:105850008A4207D800207047D3F89C208A4201D89A
:1058600000207047D3F89C0070470020704700204C
:1058700070470020704700BF1859002008B50E4639
:1058800015460A4B986000F051F82C4686F30988BB
:105890000020044B98472046002100220023024CA0
:1058A0002047000017D802005DC5020018590020EB
:1058B000014B10221A61704700ED00E0002206E063
:1058C00003F00F030949194420230B7601322F2AD4
:1058D0000ADC53B2002BF3DB03F1604303F56143B1
:1058E000202183F80013F1E7704700BFFCEC00E0D3
:1058F00008B5EFF30583103B044A02EBC301496886
:1059000052F833008847FFF769FB08BD9858030039
:1059100008B5034B034A0121034828F0A7F808BD46
:105920000000042000000020B46D030008B5D0F88A
:105930009C30403B0448036040234360034B83603A
:10594000012128F097F808BD4826002000000B151B
:10595000084AC2F898000B6823F01F03034343F082
:105960001003C2F89C308B6843F00103C2F8A030EA
:10597000704700BF00ED00E010B504460A4BD3F8B5
:105980009030C3F30723013B984203D8FFF7E0FFB1
:10599000204610BD0346054A0121054827F01FFD9A
:1059A0006FF01500F5E700BF00ED00E0C46D0300E7
:1059B000245B03002DE9F04780460F469A461646C1
:1059C000002409E02946F0B227F059FF064610F1FD
:1059D000160F1AD001360134BC4216DA04EB440526
:1059E00008EB85056A68002AF5D0BAF1000FE9D006
:1059F000284627F033FF0028E4D12346044A01213A
:105A0000044827F0ECFC6FF015063046BDE8F0873F
:105A1000EC6D0300245B030010B5034C01232278D6
:105A2000FFF7C8FF207010BD9159002008B5002372
:105A30000B4A1278FFF7BEFF10F1160F0FD0024687
:105A400006E0084BC3F898200021C3F8A0100132EB
:105A5000044BD3F89030C3F307239342F1DC08BD25
:105A60009159002000ED00E0044B0522C3F894207A
:105A7000BFF34F8FBFF36F8F704700BF00ED00E0A3
:105A8000BFF35F8F024B0022C3F89420704700BF22
:105A900000ED00E038B51C4B1D681C4BD3F890306E
:105AA000C3F307239D422BD8FFF7EAFF002409E048
:105AB000154B5B6804EB440103EB81012046FFF7C3
:105AC00047FF0134A542F3D81148057027F0F6FED0
:105AD00010F1160F13D00E4B1A780C4BD3F89030F0
